{
  "transactions": [
    {
      "hash": "0x91874c7bd27b0236fe46dedd5abe3a997dca555040fa06360f8a34bb93c9c9e3",
      "transactionType": "CREATE",
      "contractName": "DevOpsTools",
      "contractAddress": "0xda744957dcd20f2e8131ed0559f3689ed4ee8d5f",
      "function": null,
      "arguments": null,
      "transaction": {
        "from": "0xf36b67f4b9f589014dfaf65d2787410868664583",
        "to": null,
        "gas": "0xebb5f",
        "value": null,
        "input": "0x610c7861003a600b82828239805160001a60731461002d57634e487b7160e01b600052600060045260246000fd5b30600052607381538281f3fe730000000000000000000000000000000000000000301460806040526004361061006c5760003560e01c806326dceeb7146100715780632aa1c696146100ae5780633a768463146100e5578063a6066fa514610100578063d76ca83d14610108578063e374cdf11461011b575b600080fd5b81801561007d57600080fd5b5061009161008c366004610897565b61013b565b6040516001600160a01b0390911681526020015b60405180910390f35b6100d86040518060400160405280600b81526020016a0b8bd89c9bd85918d85cdd60aa1b81525081565b6040516100a59190610979565b610091737109709ecfa91a80626ff3989d68f67f5b1dd12d81565b6100d8610507565b6100d861011636600461098c565b610523565b81801561012757600080fd5b506100916101363660046109c1565b6106da565b600061014683610523565b925061015182610523565b60408051600180825281830190925291935060009190816020015b606081526020019060019003908161016c579050509050604051806040016040528060038152602001621c1dd960ea1b815250816000815181106101b2576101b2610a06565b6020908102919091010152604051638916046760e01b8152600090737109709ecfa91a80626ff3989d68f67f5b1dd12d906389160467906101f7908590600401610a1c565b6000604051808303816000875af1158015610216573d6000803e3d6000fd5b505050506040513d6000823e601f3d908101601f1916820160405261023e9190810190610ab5565b60408051600580825260c0820190925291925060009190816020015b606081526020019060019003908161025a579050509050604051806040016040528060048152602001630c4c2e6d60e31b815250816000815181106102a1576102a1610a06565b602002602001018190525081856040516020016102bf929190610afe565b604051602081830303815290604052816001815181106102e1576102e1610a06565b6020026020010181905250878160028151811061030057610300610a06565b602090810291909101015260405163348051d760e11b815260048101889052737109709ecfa91a80626ff3989d68f67f5b1dd12d90636900a3ae90602401600060405180830381865afa15801561035b573d6000803e3d6000fd5b505050506040513d6000823e601f3d908101601f191682016040526103839190810190610ab5565b8160038151811061039657610396610a06565b602002602001018190525081866040516020016103b4929190610b2d565b604051602081830303815290604052816004815181106103d6576103d6610a06565b6020908102919091010152604051638916046760e01b8152600090737109709ecfa91a80626ff3989d68f67f5b1dd12d9063891604679061041b908590600401610a1c565b6000604051808303816000875af115801561043a573d6000803e3d6000fd5b505050506040513d6000823e601f3d908101601f191682016040526104629190810190610ab5565b90506104916040518060400160405280600c81526020016b2932ba3ab937102230ba309d60a11b81525061072c565b61049a81610772565b60006104a582610b69565b60601c905080156104bc5794506104ff9350505050565b60405162461bcd60e51b8152602060048201526014602482015273139bc818dbdb9d1c9858dd0819195c1b1bde595960621b604482015260640160405180910390fd5b949350505050565b604051806060016040528060318152602001610c126031913981565b80516060908290600090815b835181101561057e5783818151811061054a5761054a610a06565b6020910101516001600160f81b031916600160fd1b1461056c5780925061057e565b8061057681610bbb565b91505061052f565b5082515b80156105d85783610594600183610bd4565b815181106105a4576105a4610a06565b6020910101516001600160f81b031916600160fd1b146105c6578091506105d8565b806105d081610be7565b915050610582565b508282815181106105eb576105eb610a06565b01602001516001600160f81b031916601760f91b036106125761060f600183610bfe565b91505b600061061e8383610bd4565b67ffffffffffffffff811115610636576106366107d2565b6040519080825280601f01601f191660200182016040528015610660576020820181803683370190505b50905060005b81518110156106d0578461067a8286610bfe565b8151811061068a5761068a610a06565b602001015160f81c60f81b8282815181106106a7576106a7610a06565b60200101906001600160f81b031916908160001a905350806106c881610bbb565b915050610666565b5095945050505050565b600061072383836040518060400160405280600b81526020016a0b8bd89c9bd85918d85cdd60aa1b815250604051806060016040528060318152602001610c126031913961013b565b90505b92915050565b61076f816040516024016107409190610979565b60408051601f198184030181529190526020810180516001600160e01b031663104c13eb60e21b1790526107b1565b50565b61076f816040516024016107869190610979565b60408051601f198184030181529190526020810180516001600160e01b03166305f3bfab60e11b1790525b80516a636f6e736f6c652e6c6f67602083016000808483855afa5050505050565b634e487b7160e01b600052604160045260246000fd5b604051601f8201601f1916810167ffffffffffffffff81118282101715610811576108116107d2565b604052919050565b600067ffffffffffffffff821115610833576108336107d2565b50601f01601f191660200190565b600082601f83011261085257600080fd5b813561086561086082610819565b6107e8565b81815284602083860101111561087a57600080fd5b816020850160208301376000918101602001919091529392505050565b600080600080608085870312156108ad57600080fd5b843567ffffffffffffffff808211156108c557600080fd5b6108d188838901610841565b95506020870135945060408701359150808211156108ee57600080fd5b6108fa88838901610841565b9350606087013591508082111561091057600080fd5b5061091d87828801610841565b91505092959194509250565b60005b8381101561094457818101518382015260200161092c565b50506000910152565b60008151808452610965816020860160208601610929565b601f01601f19169290920160200192915050565b602081526000610723602083018461094d565b60006020828403121561099e57600080fd5b813567ffffffffffffffff8111156109b557600080fd5b6104ff84828501610841565b600080604083850312156109d457600080fd5b823567ffffffffffffffff8111156109eb57600080fd5b6109f785828601610841565b95602094909401359450505050565b634e487b7160e01b600052603260045260246000fd5b6000602080830181845280855180835260408601915060408160051b870101925083870160005b82811015610a7157603f19888603018452610a5f85835161094d565b94509285019290850190600101610a43565b5092979650505050505050565b6000610a8c61086084610819565b9050828152838383011115610aa057600080fd5b610aae836020830184610929565b9392505050565b600060208284031215610ac757600080fd5b815167ffffffffffffffff811115610ade57600080fd5b8201601f81018413610aef57600080fd5b6104ff84825160208401610a7e565b60008351610b10818460208801610929565b835190830190610b24818360208801610929565b01949350505050565b60008351610b3f818460208801610929565b602f60f81b9083019081528351610b5d816001840160208801610929565b01600101949350505050565b805160208201516bffffffffffffffffffffffff198082169291906014831015610b9d5780818460140360031b1b83161693505b505050919050565b634e487b7160e01b600052601160045260246000fd5b600060018201610bcd57610bcd610ba5565b5060010190565b8181038181111561072657610726610ba5565b600081610bf657610bf6610ba5565b506000190190565b8082018082111561072657610726610ba556fe2e2f6c69622f666f756e6472792d6465766f70732f7372632f6765745f726563656e745f6465706c6f796d656e742e7368a2646970667358221220e859cb7d7a9cddd42e090ecdf5f90770a41b56b8e5ac30563d00ead63ed2295564736f6c63430008130033",
        "nonce": "0x8d",
        "chainId": "0xaa36a7",
        "accessList": null,
        "type": null
      },
      "additionalContracts": [],
      "isFixedGasLimit": false
    },
    {
      "hash": "0x6d17c7741cbb9860a6844142e0863e9b41754d3466f891c8b3750d3e1440f592",
      "transactionType": "CALL",
      "contractName": null,
      "contractAddress": "0x8103b0a8a00be2ddc778e6e7eaa21791cd364625",
      "function": "createSubscription()",
      "arguments": [],
      "transaction": {
        "from": "0xf36b67f4b9f589014dfaf65d2787410868664583",
        "to": "0x8103b0a8a00be2ddc778e6e7eaa21791cd364625",
        "gas": "0x1558c",
        "value": "0x0",
        "input": "0xa21a23e4",
        "nonce": "0x8e",
        "chainId": "0xaa36a7",
        "accessList": null,
        "type": null
      },
      "additionalContracts": [],
      "isFixedGasLimit": false
    },
    {
      "hash": "0xbc0a28dbc90c119581868bcdf00b4ec9eda2c08d22037cf0e17803c8bb72db29",
      "transactionType": "CALL",
      "contractName": "LinkToken",
      "contractAddress": "0x779877a7b0d9e8603169ddbd7836e478b4624789",
      "function": "transferAndCall(address,uint256,bytes)",
      "arguments": [
        "0x8103B0A8A00be2DDC778e6e7eaa21791Cd364625",
        "3000000000000000000",
        "0x0000000000000000000000000000000000000000000000000000000000002dd2"
      ],
      "transaction": {
        "from": "0xf36b67f4b9f589014dfaf65d2787410868664583",
        "to": "0x779877a7b0d9e8603169ddbd7836e478b4624789",
        "gas": "0x1b43f",
        "value": "0x0",
        "input": "0x4000aea00000000000000000000000008103b0a8a00be2ddc778e6e7eaa21791cd36462500000000000000000000000000000000000000000000000029a2241af62c0000000000000000000000000000000000000000000000000000000000000000006000000000000000000000000000000000000000000000000000000000000000200000000000000000000000000000000000000000000000000000000000002dd2",
        "nonce": "0x8f",
        "chainId": "0xaa36a7",
        "accessList": null,
        "type": null
      },
      "additionalContracts": [],
      "isFixedGasLimit": false
    },
    {
      "hash": "0xf97ecee04f3ffdf4597735f2a1e8e6ee7ffa92cd549578c40f53cf576ee8b1eb",
      "transactionType": "CREATE",
      "contractName": "Raffle",
      "contractAddress": "0xc9baa670af004d7ad19094f8988bdae86ddd0e2d",
      "function": null,
      "arguments": [
        "11730",
        "0x474e34a077df58807dbe9c96d3c009b23b3c6d0cce433e59bbf5b34f823bc56c",
        "30",
        "10000000000000000",
        "500000",
        "0x8103B0A8A00be2DDC778e6e7eaa21791Cd364625"
      ],
      "transaction": {
        "from": "0xf36b67f4b9f589014dfaf65d2787410868664583",
        "to": null,
        "gas": "0xfccc0",
        "value": "0x0",
        "input": "0x61018060405234801561001157600080fd5b50604051610eb1380380610eb1833981016040819052610030916100c0565b6001600160a01b038116608081905260a05260e085905233610120526101408490526001600160401b03861660c0526101608390526003805460ff191690554260005563ffffffff8216610100524780156100b457604051339082156108fc029083906000818181858888f193505050501580156100b2573d6000803e3d6000fd5b505b5050505050505061014b565b60008060008060008060c087890312156100d957600080fd5b86516001600160401b03811681146100f057600080fd5b80965050602087015194506040870151935060608701519250608087015163ffffffff8116811461012057600080fd5b60a08801519092506001600160a01b038116811461013d57600080fd5b809150509295509295509295565b60805160a05160c05160e05161010051610120516101405161016051610ced6101c46000396000818160fc01526103820152600081816102850152610650015260006102300152600061054b015260006104ed01526000610513015260006105870152600081816102fe01526103400152610ced6000f3fe6080604052600436106100e85760003560e01c80635f1b0fd81161008a57806391ad27b41161005957806391ad27b414610276578063c1c244e8146102a9578063e55ae4e8146102be578063fd6673f5146102de57600080fd5b80635f1b0fd8146101df5780636e04ff0d146101f3578063893d20e8146102215780638b5b9ccc1461025457600080fd5b80632cfcc539116100c65780632cfcc539146101715780634585e33b14610179578063473f1ddc1461019957806353a2c19a146101cb57600080fd5b806309bc33a7146100ed578063115cbaf51461012f5780631fe543e31461014f575b600080fd5b3480156100f957600080fd5b507f00000000000000000000000000000000000000000000000000000000000000005b6040519081526020015b60405180910390f35b34801561013b57600080fd5b5060035460ff166040516101269190610959565b34801561015b57600080fd5b5061016f61016a3660046109c8565b6102f3565b005b61016f610380565b34801561018557600080fd5b5061016f610194366004610a7a565b610466565b3480156101a557600080fd5b506001546001600160a01b03165b6040516001600160a01b039091168152602001610126565b3480156101d757600080fd5b50600161011c565b3480156101eb57600080fd5b50600361011c565b3480156101ff57600080fd5b5061021361020e366004610aec565b610628565b604051610126929190610b81565b34801561022d57600080fd5b507f00000000000000000000000000000000000000000000000000000000000000006101b3565b34801561026057600080fd5b506102696106cd565b6040516101269190610bd9565b34801561028257600080fd5b507f000000000000000000000000000000000000000000000000000000000000000061011c565b3480156102b557600080fd5b5060005461011c565b3480156102ca57600080fd5b506101b36102d9366004610c26565b61072f565b3480156102ea57600080fd5b5060025461011c565b336001600160a01b037f000000000000000000000000000000000000000000000000000000000000000016146103725760405163073e64fd60e21b81523360048201526001600160a01b037f00000000000000000000000000000000000000000000000000000000000000001660248201526044015b60405180910390fd5b61037c828261075f565b5050565b7f00000000000000000000000000000000000000000000000000000000000000003410156103c15760405163181c600560e11b815260040160405180910390fd5b600060035460ff1660018111156103da576103da610943565b146103f85760405163349289c560e21b815260040160405180910390fd5b6002805460018101825560009182527f405787fa12a823e0f2b7631cc41b3ba8828b3321ca811111fa75cd3aa3bb5ace0180546001600160a01b0319163390811790915560405190917f0805e1d667bddb8a95f0f09880cf94f403fb596ce79928d9f29b74203ba284d491a2565b600061048060405180602001604052806000815250610628565b509050806104cf5760025460035447919060ff1660018111156104a5576104a5610943565b604051632c2193d560e11b8152600481019390935260248301919091526044820152606401610369565b6003805460ff1916600190811782556040516305d3b1d360e41b81527f000000000000000000000000000000000000000000000000000000000000000060048201527f000000000000000000000000000000000000000000000000000000000000000067ffffffffffffffff16602482015260448101929092527f000000000000000000000000000000000000000000000000000000000000000063ffffffff16606483015260848201526000906001600160a01b037f00000000000000000000000000000000000000000000000000000000000000001690635d3b1d309060a4016020604051808303816000875af11580156105d0573d6000803e3d6000fd5b505050506040513d601f19601f820116820180604052508101906105f49190610c3f565b60405190915081907fcd6e45c8998311cab7e9d4385596cac867e20a0587194b954fa3a731c93ce78b90600090a250505050565b600354600090606090829060ff16600181111561064757610647610943565b600014905060007f00000000000000000000000000000000000000000000000000000000000000006000544261067d9190610c58565b6002549110915015154715158280156106935750835b801561069c5750805b80156106a55750815b60408051808201909152600381526203078360ec1b6020820152909890975095505050505050565b6060600280548060200260200160405190810160405280929190818152602001828054801561072557602002820191906000526020600020905b81546001600160a01b03168152600190910190602001808311610707575b5050505050905090565b60006002828154811061074457610744610c7f565b6000918252602090912001546001600160a01b031692915050565b60006002805490508260008151811061077a5761077a610c7f565b602002602001015161078c9190610c95565b90506000600282815481106107a3576107a3610c7f565b6000918252602082200154600180546001600160a01b0319166001600160a01b03909216918217905591506040519080825280602002602001820160405280156107f7578160200160208202803683370190505b50805161080c916002916020909101906108c9565b506003805460ff191690554260009081556040516001600160a01b038316917f5b690ec4a06fe979403046eaeea5b3ce38524683c3001f662c8b5a829632f7df91a26000816001600160a01b03164760405160006040518083038185875af1925050503d806000811461089b576040519150601f19603f3d011682016040523d82523d6000602084013e6108a0565b606091505b50509050806108c25760405163a1d04b3960e01b815260040160405180910390fd5b5050505050565b82805482825590600052602060002090810192821561091e579160200282015b8281111561091e57825182546001600160a01b0319166001600160a01b039091161782556020909201916001909101906108e9565b5061092a92915061092e565b5090565b5b8082111561092a576000815560010161092f565b634e487b7160e01b600052602160045260246000fd5b602081016002831061097b57634e487b7160e01b600052602160045260246000fd5b91905290565b634e487b7160e01b600052604160045260246000fd5b604051601f8201601f1916810167ffffffffffffffff811182821017156109c0576109c0610981565b604052919050565b600080604083850312156109db57600080fd5b8235915060208084013567ffffffffffffffff808211156109fb57600080fd5b818601915086601f830112610a0f57600080fd5b813581811115610a2157610a21610981565b8060051b9150610a32848301610997565b8181529183018401918481019089841115610a4c57600080fd5b938501935b83851015610a6a57843582529385019390850190610a51565b8096505050505050509250929050565b60008060208385031215610a8d57600080fd5b823567ffffffffffffffff80821115610aa557600080fd5b818501915085601f830112610ab957600080fd5b813581811115610ac857600080fd5b866020828501011115610ada57600080fd5b60209290920196919550909350505050565b60006020808385031215610aff57600080fd5b823567ffffffffffffffff80821115610b1757600080fd5b818501915085601f830112610b2b57600080fd5b813581811115610b3d57610b3d610981565b610b4f601f8201601f19168501610997565b91508082528684828501011115610b6557600080fd5b8084840185840137600090820190930192909252509392505050565b821515815260006020604081840152835180604085015260005b81811015610bb757858101830151858201606001528201610b9b565b506000606082860101526060601f19601f830116850101925050509392505050565b6020808252825182820181905260009190848201906040850190845b81811015610c1a5783516001600160a01b031683529284019291840191600101610bf5565b50909695505050505050565b600060208284031215610c3857600080fd5b5035919050565b600060208284031215610c5157600080fd5b5051919050565b81810381811115610c7957634e487b7160e01b600052601160045260246000fd5b92915050565b634e487b7160e01b600052603260045260246000fd5b600082610cb257634e487b7160e01b600052601260045260246000fd5b50069056fea26469706673582212207db0100f9c2e83907094d8e319b5d2603d7d36a24e15d533ddfae1493a8d946364736f6c634300081300330000000000000000000000000000000000000000000000000000000000002dd2474e34a077df58807dbe9c96d3c009b23b3c6d0cce433e59bbf5b34f823bc56c000000000000000000000000000000000000000000000000000000000000001e000000000000000000000000000000000000000000000000002386f26fc10000000000000000000000000000000000000000000000000000000000000007a1200000000000000000000000008103b0a8a00be2ddc778e6e7eaa21791cd364625",
        "nonce": "0x90",
        "chainId": "0xaa36a7",
        "accessList": null,
        "type": null
      },
      "additionalContracts": [],
      "isFixedGasLimit": false
    },
    {
      "hash": "0x7dab3a8b4e4155357bd5ad4d6535059e06501b9b7ff39f263ce81b3ecce33e41",
      "transactionType": "CALL",
      "contractName": null,
      "contractAddress": "0x8103b0a8a00be2ddc778e6e7eaa21791cd364625",
      "function": "addConsumer(uint64,address)",
      "arguments": [
        "11730",
        "0xC9BaA670af004d7AD19094f8988bdAe86Ddd0e2D"
      ],
      "transaction": {
        "from": "0xf36b67f4b9f589014dfaf65d2787410868664583",
        "to": "0x8103b0a8a00be2ddc778e6e7eaa21791cd364625",
        "gas": "0x20079",
        "value": "0x0",
        "input": "0x7341c10c0000000000000000000000000000000000000000000000000000000000002dd2000000000000000000000000c9baa670af004d7ad19094f8988bdae86ddd0e2d",
        "nonce": "0x91",
        "chainId": "0xaa36a7",
        "accessList": null,
        "type": null
      },
      "additionalContracts": [],
      "isFixedGasLimit": false
    }
  ],
  "receipts": [
    {
      "status": "0x1",
      "cumulativeGasUsed": "0x410ff6",
      "logs": [],
      "logsBloom": "0x00000000000000000000000000000000000000000000000000000000000000000000000000000000000000000000000000000000000000000000000000000000000000000000000000000000000000000000000000000000000000000000000000000000000000000000000000000000000000000000000000000000000000000000000000000000000000000000000000000000000000000000000000000000000000000000000000000000000000000000000000000000000000000000000000000000000000000000000000000000000000000000000000000000000000000000000000000000000000000000000000000000000000000000000000000000",
      "type": "0x0",
      "transactionHash": "0x91874c7bd27b0236fe46dedd5abe3a997dca555040fa06360f8a34bb93c9c9e3",
      "transactionIndex": "0xd",
      "blockHash": "0x003a490a7d8805d36395b8e108ac1942957e8be24e0124faebf5baa88211df2b",
      "blockNumber": "0x5a9722",
      "gasUsed": "0xb55da",
      "effectiveGasPrice": "0x3eea38a87",
      "from": "0xf36b67f4b9f589014dfaf65d2787410868664583",
      "to": null,
      "contractAddress": "0xda744957dcd20f2e8131ed0559f3689ed4ee8d5f"
    },
    {
      "status": "0x1",
      "cumulativeGasUsed": "0x41f980",
      "logs": [
        {
          "address": "0x8103b0a8a00be2ddc778e6e7eaa21791cd364625",
          "topics": [
            "0x464722b4166576d3dcbba877b999bc35cf911f4eaf434b7eba68fa113951d0bf",
            "0x0000000000000000000000000000000000000000000000000000000000002dd2"
          ],
          "data": "0x000000000000000000000000f36b67f4b9f589014dfaf65d2787410868664583",
          "blockHash": "0x003a490a7d8805d36395b8e108ac1942957e8be24e0124faebf5baa88211df2b",
          "blockNumber": "0x5a9722",
          "transactionHash": "0x6d17c7741cbb9860a6844142e0863e9b41754d3466f891c8b3750d3e1440f592",
          "transactionIndex": "0xe",
          "logIndex": "0x1e",
          "removed": false
        }
      ],
      "logsBloom": "0x0000000000000000000001000000000000000000000000000000000000000000010000000000000000000000000000800000000000000000000000000000000000000000000000000000000000000100000000000000000000000000000000000000000000000000000000000000000000000000000000000000000000000000000000000c000020000000000000000000000000000000000000000000000000000000000000000000000000000000000000000000000000000000000000000000000000000000200000000000000000000000000000000000000000000000000000000000000000000000000000000000000002000000000000000000000000",
      "type": "0x0",
      "transactionHash": "0x6d17c7741cbb9860a6844142e0863e9b41754d3466f891c8b3750d3e1440f592",
      "transactionIndex": "0xe",
      "blockHash": "0x003a490a7d8805d36395b8e108ac1942957e8be24e0124faebf5baa88211df2b",
      "blockNumber": "0x5a9722",
      "gasUsed": "0xe98a",
      "effectiveGasPrice": "0x3eea38a87",
      "from": "0xf36b67f4b9f589014dfaf65d2787410868664583",
      "to": "0x8103b0a8a00be2ddc778e6e7eaa21791cd364625",
      "contractAddress": null
    },
    {
      "status": "0x1",
      "cumulativeGasUsed": "0x4323ca",
      "logs": [
        {
          "address": "0x779877a7b0d9e8603169ddbd7836e478b4624789",
          "topics": [
            "0xddf252ad1be2c89b69c2b068fc378daa952ba7f163c4a11628f55a4df523b3ef",
            "0x000000000000000000000000f36b67f4b9f589014dfaf65d2787410868664583",
            "0x0000000000000000000000008103b0a8a00be2ddc778e6e7eaa21791cd364625"
          ],
          "data": "0x00000000000000000000000000000000000000000000000029a2241af62c0000",
          "blockHash": "0x003a490a7d8805d36395b8e108ac1942957e8be24e0124faebf5baa88211df2b",
          "blockNumber": "0x5a9722",
          "transactionHash": "0xbc0a28dbc90c119581868bcdf00b4ec9eda2c08d22037cf0e17803c8bb72db29",
          "transactionIndex": "0xf",
          "logIndex": "0x1f",
          "removed": false
        },
        {
          "address": "0x779877a7b0d9e8603169ddbd7836e478b4624789",
          "topics": [
            "0xe19260aff97b920c7df27010903aeb9c8d2be5d310a2c67824cf3f15396e4c16",
            "0x000000000000000000000000f36b67f4b9f589014dfaf65d2787410868664583",
            "0x0000000000000000000000008103b0a8a00be2ddc778e6e7eaa21791cd364625"
          ],
          "data": "0x00000000000000000000000000000000000000000000000029a2241af62c0000000000000000000000000000000000000000000000000000000000000000004000000000000000000000000000000000000000000000000000000000000000200000000000000000000000000000000000000000000000000000000000002dd2",
          "blockHash": "0x003a490a7d8805d36395b8e108ac1942957e8be24e0124faebf5baa88211df2b",
          "blockNumber": "0x5a9722",
          "transactionHash": "0xbc0a28dbc90c119581868bcdf00b4ec9eda2c08d22037cf0e17803c8bb72db29",
          "transactionIndex": "0xf",
          "logIndex": "0x20",
          "removed": false
        },
        {
          "address": "0x8103b0a8a00be2ddc778e6e7eaa21791cd364625",
          "topics": [
            "0xd39ec07f4e209f627a4c427971473820dc129761ba28de8906bd56f57101d4f8",
            "0x0000000000000000000000000000000000000000000000000000000000002dd2"
          ],
          "data": "0x000000000000000000000000000000000000000000000000000000000000000000000000000000000000000000000000000000000000000029a2241af62c0000",
          "blockHash": "0x003a490a7d8805d36395b8e108ac1942957e8be24e0124faebf5baa88211df2b",
          "blockNumber": "0x5a9722",
          "transactionHash": "0xbc0a28dbc90c119581868bcdf00b4ec9eda2c08d22037cf0e17803c8bb72db29",
          "transactionIndex": "0xf",
          "logIndex": "0x21",
          "removed": false
        }
      ],
      "logsBloom": "0x0000001400000000000000000000000000000000000000020000000002000000000000000000800000000000000000800000000000000000000000000000000000000000000000000000000800000100000000000000000000002000000000000000000000000000000000000000000000000000400000000000001000000000000000000c000020000000000000800010000020000000000000000000000000000000000000000000000000000000000080000000000000000420000000000000000002000000000000000000000000000000000000000100000000000000000000000000020000000000000000000000000002000000000000000000000000",
      "type": "0x0",
      "transactionHash": "0xbc0a28dbc90c119581868bcdf00b4ec9eda2c08d22037cf0e17803c8bb72db29",
      "transactionIndex": "0xf",
      "blockHash": "0x003a490a7d8805d36395b8e108ac1942957e8be24e0124faebf5baa88211df2b",
      "blockNumber": "0x5a9722",
      "gasUsed": "0x12a4a",
      "effectiveGasPrice": "0x3eea38a87",
      "from": "0xf36b67f4b9f589014dfaf65d2787410868664583",
      "to": "0x779877a7b0d9e8603169ddbd7836e478b4624789",
      "contractAddress": null
    },
    {
      "status": "0x1",
      "cumulativeGasUsed": "0x4f4c1b",
      "logs": [],
      "logsBloom": "0x00000000000000000000000000000000000000000000000000000000000000000000000000000000000000000000000000000000000000000000000000000000000000000000000000000000000000000000000000000000000000000000000000000000000000000000000000000000000000000000000000000000000000000000000000000000000000000000000000000000000000000000000000000000000000000000000000000000000000000000000000000000000000000000000000000000000000000000000000000000000000000000000000000000000000000000000000000000000000000000000000000000000000000000000000000000",
      "type": "0x0",
      "transactionHash": "0xf97ecee04f3ffdf4597735f2a1e8e6ee7ffa92cd549578c40f53cf576ee8b1eb",
      "transactionIndex": "0x10",
      "blockHash": "0x003a490a7d8805d36395b8e108ac1942957e8be24e0124faebf5baa88211df2b",
      "blockNumber": "0x5a9722",
      "gasUsed": "0xc2851",
      "effectiveGasPrice": "0x3eea38a87",
      "from": "0xf36b67f4b9f589014dfaf65d2787410868664583",
      "to": null,
      "contractAddress": "0xc9baa670af004d7ad19094f8988bdae86ddd0e2d"
    },
    {
      "status": "0x1",
      "cumulativeGasUsed": "0x50bf21",
      "logs": [
        {
          "address": "0x8103b0a8a00be2ddc778e6e7eaa21791cd364625",
          "topics": [
            "0x43dc749a04ac8fb825cbd514f7c0e13f13bc6f2ee66043b76629d51776cff8e0",
            "0x0000000000000000000000000000000000000000000000000000000000002dd2"
          ],
          "data": "0x000000000000000000000000c9baa670af004d7ad19094f8988bdae86ddd0e2d",
          "blockHash": "0x003a490a7d8805d36395b8e108ac1942957e8be24e0124faebf5baa88211df2b",
          "blockNumber": "0x5a9722",
          "transactionHash": "0x7dab3a8b4e4155357bd5ad4d6535059e06501b9b7ff39f263ce81b3ecce33e41",
          "transactionIndex": "0x11",
          "logIndex": "0x22",
          "removed": false
        }
      ],
      "logsBloom": "0x0000000000000000000000000000000000000000000000000000000000000000000000000000000000000000000000800000000000000000000000000000000000000000000000000000000000000100000000000000000000000000000000000000000000008000000000000000000000000000000000000000000000000000000000000c000020000000000000000000000000000000000000000000000000000000000000000000000080000000000000000000000000000000000000000000000000000000000000000000000000000000000000000000020000000000000000000000000000000000000000000000000002000000000000000000000000",
      "type": "0x0",
      "transactionHash": "0x7dab3a8b4e4155357bd5ad4d6535059e06501b9b7ff39f263ce81b3ecce33e41",
      "transactionIndex": "0x11",
      "blockHash": "0x003a490a7d8805d36395b8e108ac1942957e8be24e0124faebf5baa88211df2b",
      "blockNumber": "0x5a9722",
      "gasUsed": "0x17306",
      "effectiveGasPrice": "0x3eea38a87",
      "from": "0xf36b67f4b9f589014dfaf65d2787410868664583",
      "to": "0x8103b0a8a00be2ddc778e6e7eaa21791cd364625",
      "contractAddress": null
    }
  ],
  "libraries": [
    "lib/foundry-devops/src/DevOpsTools.sol:DevOpsTools:0xDa744957dcd20f2E8131Ed0559F3689ed4Ee8d5F"
  ],
  "pending": [],
  "returns": {
    "1": {
      "internal_type": "contract HelperConfig",
      "value": "0xC7f2Cf4845C6db0e1a1e91ED41Bcd0FcC1b0E141"
    },
    "0": {
      "internal_type": "contract Raffle",
      "value": "0xC9BaA670af004d7AD19094f8988bdAe86Ddd0e2D"
    }
  },
  "timestamp": 1716150643,
  "chain": 11155111,
  "commit": "02dbdfc"
}